:0200000280007C
:100000000832002009010800F320080051220800EE
:10001000F7200800F9200800FB200800000000007D
:10002000000000000000000000000000FD200800AB
:10003000FF200800000000000121080091210800B5
:1000400007210800092108000B2108000D210800E4
:100050000F210800112108001321080015210800B4
:10006000CD3F080019210800D12108001122080005
:100070001F210800ED3F0800093B08002D3B080048
:100080002521080027210800452D08002B21080004
:10009000A13108002F210800312108003D4108004E
:1000A0003521080037210800610608003B210800BF
:1000B0003D2108003F210800000000000000000072
:1000C0000000000000000000000000000000000030
:1000D0000000000000000000000000000000000020
:1000E0000000000000000000000000000000000010
:1000F0000000000000000000000000000000000000
:1001000090FAA0F0704700000248D0F800D00248F2
:1001100000470000000008002D010800072803DB4D
:10012000A0F107000338FDD5704700BF08B50D4AA0
:100130004FF0E023C3F8082D0B480C4A121A0C4963
:1001400005F078F90B480C4A121A002105F0F8F86E
:1001500004F0DCFE0949CA6802F4E062084B13436C
:10016000CB6008BD0000080000000020E003002074
:10017000F0540800E00300200822002000ED00E019
:100180000400FA0503460A4A10680A4A121A9A42FB
:1001900007DB094A121A9A4203DC0344044A13603B
:1001A0007047064B0C221A604FF0FF30704700BFBB
:1001B000000000200040082000000820FC21002052
:1001C000014B024A5A65704700120E400065FF1F3E
:1001D000254B04221A644FF480721A60224B9B6EE6
:1001E00013F4807FFAD0204B204A1A621E4B9B6E7C
:1001F00013F0010FFAD01C4A136A43F09B7343F4C7
:1002000080331362184B9B6E13F4803FFAD0184B67
:100210004FF400721A60A3F58063164A9A62124B7B
:100220009B6E13F0020FFAD00F4B42F211021A63C9
:100230000D4B9B6E13F0080FFAD00B4B42F21202DB
:100240001A63094B9B6E13F0080FFAD0064AD36964
:1002500043F44413D361044B9B6E13F0400FFAD068
:10026000014B054A1A61704700040E4009F037003F
:1002700000080E40013F072073EDFC27274B284A5A
:100280001A60284A5A60284A1A61284A5A6100228C
:100290001A624FF0FF3159622548186525485865A4
:1002A000012058666FF001001866C3F8A020C3F85B
:1002B000A410214818634FF0405058634FF0F640A7
:1002C0001867C3F88020C3F88420C3F88C2003F596
:1002D00000731A4818601A4858601A4818611A487A
:1002E00058611A6259621A6559654FF4E07159668E
:1002F0006FF4E07119661549C3F8A0101449C3F8EA
:10030000A410144919635A6313491967C3F880206C
:10031000C3F88420C3F88C20704700BF000C0E4047
:1003200007000384F8FFFC7B01000184FEFFFE7BD5
:1003300000060004FFF9FFFB0000018857FFBF0122
:10034000A80040FEE0FFBF011F0040FE00FC1F00B0
:10035000FF03E0FF0002A001180040000022064B4E
:100360001A60064B1A604FF0E02341F26F71596139
:100370009A6103221A617047D0210020CC2100200D
:1003800008B5124B1B68124A12689B1A012B0DD03C
:100390000F4A5368013353600E4A136843F0200339
:1003A00013600D4B1B6813F0020F04D1074B1A6842
:1003B000074B1A6008BD094804F0DEF8044B586882
:1003C00004F022FB04F0C2FAF0E700BFD0210020C5
:1003D000E0030020C4210020AC200020A804080075
:1003E0000C4A136F23F4801313674FF0E022D2F806
:1003F000103D23F00403C2F8103D074A136843F090
:100400008043136000E030BF034B1B6813F0804F44
:10041000F9D1704700040E40C42100200C4B00228B
:100420001A6003F5007303221A6041F27071D960FB
:10043000196142F6E061596099601A6240F2DC523B
:10044000DA621A6340F6B8325A629A62704700BFA5
:1004500000C0084001280DD0022810D1084A094BDD
:10046000B3FBF1F1084BDB68184205D01161490874
:1004700091607047054AF2E7D160490851607047C2
:1004800020C20840808D5B0000C0084000C20840C8
:10049000014B5860704700BF00C00840014B986096
:1004A000704700BF00C008400A0D2A2A2A20316D7B
:1004B000732074696D696E672076696F6C61746909
:1004C0006F6E3A20000000000000020000000000F3
:1004D0000100000080000000020000008000000019
:1004E00004000000800000000020000080010000E7
:1004F00000400000800100000000040080010000B6
:1005000000000100800100000000080080010000E0
:100510000000020080010000008000008001000057
:1005200000001000800100000004000080010000B5
:1005300000080000800100000010000080010000A1
:100540007047704710B500231C4601E00133DBB251
:10055000022B05D8074AD25C8242F7D10124F5E785
:100560001CB1054B43F8201010BD044804F004F8FA
:10057000FAE700BFF0060800E8030020C006080004
:1005800002460A4B93F8200000B97047002183F817
:100590002010012303FA02F0054A1061506211682D
:1005A00041F0020111601846EFE700BFE8030020A8
:1005B00000800A4010B588B00DF1040C1A4C0FCC25
:1005C000ACE80F0094E80700ACE803008CF80020CA
:1005D000164B174A5A60FF225A6140F201125A66BE
:1005E000144A9A66144A9A62002305E0134A144991
:1005F00042F823100133DBB2072BF7D90F4C01234C
:1006000084F820300F4B4FF08062C3F880211A60CD
:1006100001A803F0B1FF0C4A136843F020031360F4
:100620000A4B636208B010BDD406080000800A407F
:100630000017040F01000400FFFF0F00E803002073
:100640004105080000E100E0C82100204305080042
:1006500008B5024B5B6A984708BD00BFE80300205D
:1006600038B5002401E00134E4B2022C16D8104B56
:10067000D969104B1A5D012393401942F3D00C4DF8
:1006800002F10C0355F823000B4B53F8223080B2D3
:100690009847084B1A5D012393406B61064B01227A
:1006A00083F82020054B4FF08062C3F8802138BDCD
:1006B00000800A40F0060800E803002000E100E0A6
:1006C000496E76616C6964206368616E6E656C0A60
:1006D0000D0000004144433132207461736B206986
:1006E0006E697469616C697A65640A0D00000000C6
:1006F0000102030072B6064B1A1D1A60C3F80421EA
:10070000C3F80821002283F80C2162B6704700BFAD
:1007100014040020084BD3F804210132C3F804214B
:1007200003F582739A4200D07047A3F582731A1DB5
:10073000C3F80421F8E700BF14040020084BD3F8E5
:1007400008210132C3F8082103F582739A4200D0D0
:100750007047A3F582731A1DC3F80821F8E700BF9C
:1007600014040020002300E00133C72BFCD9074B01
:100770004FF080725A63002300E00133132BFCD941
:10078000024B4FF080721A63704700BF000E0E409C
:1007900008B5044AD2F810310133C2F81031FFF71E
:1007A000E1FF08BD1404002008B50E4BD3F8142156
:1007B0000132C3F814211A6801321A6003F58273FA
:1007C0009A4206D0074BD3F8183113F0807F05D139
:1007D00008BDA3F582731A1D1A60F3E7FFF7C2FF85
:1007E000F6E700BF140400207047F0B58DB007ACE9
:1007F000754D0FCD0FC42B6823700DF1040C734C95
:100800000FCCACE80F0094E803008CE80300704BB9
:100810001B6813F0010F00F0D4806E4BD3F8144125
:100820000022C3F81C21D3F8183113F0806F21D0B7
:1008300023F08063674AC2F81831013C654BD3F856
:100840001C2142F210739A4228D8614A136823F09F
:10085000040313605F4BD3F804311B78A42B23D01F
:100860005C4AD2F828310133C2F8283101A803F0DC
:1008700083FE8FE0FFF776FF03E00133554AC2F8AD
:100880001C31534B1B6813F0040FD7D1514BD3F8D5
:100890001C3142F20F729342EFD9CFE7FFF72AFFE4
:1008A00007A803F069FE8CE04A4AD2F8183143F0F9
:1008B0008073C2F81831FFF755FF03E00133454A52
:1008C000C2F81C31424B1B6813F0010F06D0414B9C
:1008D000D3F81C3142F20F729342EFD93D4BD3F85B
:1008E000182122F08072C3F8182139490A6822F0D1
:1008F00004020A60D3F81C2142F20F739A4206D90F
:10090000344AD2F824310133C2F82431AEE7314FF2
:10091000D7F814512D1BD7F804311E78FFF7FAFED3
:10092000D7F8043193F900300233DCB2A31CAB4298
:1009300005D0D7F8183143F00103C7F81831254B1B
:10094000D3F804311B785E40FFF7E4FE631E13F01A
:10095000FF04F4D11F4BD3F804311A78B2420DD101
:100960001C4B93F80C21013283F80C21D3F8202181
:100970000132C3F82021FFF7CDFE22E0154AC2F86C
:100980000831FFF7DBFEF6E70133124AC2F81C31EB
:10099000FFF7E8FE0E4B1B6813F0010F06D00D4B5E
:1009A000D3F81C3142F20F729342EDD9094B1A6809
:1009B000C3F80421C3F80821054A136823F006038D
:1009C00013600DB0F0BD00BF541608006816080093
:1009D0003C1F00201404002010B5064CD4F82C3124
:1009E0000133C4F82C31FFF700FF034BC4F830315A
:1009F00010BD00BF140400206D11080038B50C466E
:100A000003788578092B38D0093BDBB2082B12D844
:100A1000C37A90F90B20002A19DBFF2296464FF685
:100A2000FF714FF0000C13F0400F1AD00CF10D0CB9
:100A300010F90CC017E0154803F09EFD4FF0FF3C85
:100A4000FF2296464FF6FF71002318460CE0017B0B
:100A5000427B41EA022190F80EE0C27B4FF0040C89
:100A6000E1E74FF0FF3C012063702570618084F85E
:100A700004E0627184F806C038BD4FF0FF3CFF22ED
:100A800096464FF6FF7100231846EDE780160800E2
:100A9000F0B58DB007460D4616460DF1040C2E4CF0
:100AA0000FCCACE80F000FCCACE80F0094E80700C7
:100AB000ACE803002CF8022B120C8CF800201C2050
:100AC00004F080FB10B10446002309E001A803F004
:100AD00053FD002038E0E95CE21891710133DBB28C
:100AE000072BF8D91D4B1B68236027713378A3733C
:100AF000738823823379A3747379E3747378E3730F
:100B000096F9063023750023A361154BD3F83411F1
:100B100009B100230BE0C3F83441D3F83821013286
:100B2000C3F8382101200FE00133DBB211468A6996
:100B3000002AF9D11F2B09D88C61094AD2F8383123
:100B40000133C2F8383101200DB0F0BD01A803F027
:100B500013FD0020F8E700BFA4160800D0210020F4
:100B60001404002000B585B0FF238DF8083081788B
:100B70008DF80910C2788DF80A2002798DF80B20C3
:100B80008DF80C30104A92F83C018DF80D0092F867
:100B90003D018DF80E0092F83E218DF80F208DF862
:100BA0000010ADF802308DF804308DF805308DF866
:100BB00006308DF801306A4602A90220FFF768FF6F
:100BC00005B05DF804FB00BF1404002008B5054B18
:100BD000D3F8400120B18269C3F8402104F0FAFA49
:100BE00008BD00BF1404002008B51E4BD3F8440113
:100BF00001F0E8FC032804D004282AD11A4803F0A5
:100C0000BBFCFFF7E3FF174B0022C3F84421D3F8E6
:100C1000182122F00072C3F8182103E00133114AB1
:100C2000C2F84831114B1B6813F0010F06D00D4B71
:100C3000D3F8483142F20F729342EFD9094BD3F8FF
:100C40001C2142F210739A4206D8064B084AC3F898
:100C5000302108BDFFF786FD044B1B6813F0010F20
:100C6000F8D1F2E714040020D01608003C1F002041
:100C70006D11080030B589B0A94B93F80C311BB940
:100C80000124204609B030BDA54CD4F84C210132D6
:100C9000C4F84C21013B84F80C31FFF74FFDD4F828
:100CA00008311D78112D00F2938100240CE09C4B3B
:100CB000D3F808311A7804F120036B4403F8142C9C
:100CC000FFF73CFD0134E4B2EB1C9C42EFDB9DF8E6
:100CD0000E509DF80D30522B1DD83E2BC0F06F8169
:100CE0003E3B142B00F26B81DFE813F053016901E6
:100CF00021006901690169016901690169016901ED
:100D000069016901690169016901690147014701D7
:100D10006901690174016F2B40F05181804AD2F85A
:100D2000183143F48033C2F818310024A9E79DF844
:100D30000F00012800F09980794B83F8505183F817
:100D400051019DF8102083F85221A0F141031A2B84
:100D500059D8DFE803F03C58585858585858585854
:100D6000113358585858585858585858585858586F
:100D70000E006C4803F000FC05F130036A48037371
:100D800003F0FAFB9DF8103083B9654A05EB850145
:100D900002EB810191F8673143F0040081F86701AB
:100DA00023F0020343F0040381F867319DF81040FB
:100DB000002C4ED15D4803F0DFFB62E76BB23033AD
:100DC000594880F82030143003F0D6FBEEE76BB2C0
:100DD0003033554880F838302C3003F0CDFB9DF887
:100DE0001030002BE2D14E4B05EB850203EB820263
:100DF00092F8672105EB850503EB850322F00102DC
:100E000083F86721D2E76BB23033474C84F8503017
:100E1000000903F0F6F984F85C009DF80F0000F07B
:100E20000F0003F0EEF984F85D009DF81000000952
:100E300003F0E7F984F868009DF8100000F00F0057
:100E400003F0DFF984F8690004F1440003F094FB37
:100E5000ACE7374803F090FB314AD2F8183143F041
:100E60000203C2F8183100240BE79DF81040082C4B
:100E700074D8DFE804F00550092773374B5F220070
:100E800003A8FFF76FFEFCE6254A92F83E310133D6
:100E9000DBB282F83E315BB992F83D310133DBB20F
:100EA00082F83D3123B992F83C31013382F83C316C
:100EB00003A8FFF757FE0024E3E603A8FFF752FE5E
:100EC0000024DEE605EB8505154B03EB850393F85F
:100ED0005531102B01D00024D3E603A8FFF742FEC2
:100EE0000024CEE60E4B05EB850203EB820292F85E
:100EF000672105EB850503EB850342F0100283F8BB
:100F0000672103A8FFF72EFE0024BAE603A8FFF727
:100F100029FE0024B5E603A8FFF724FE0024B0E66E
:100F200014040020F01608000400002070000020C7
:100F300078000020284803F01FFB284B05EB8502B2
:100F400003EB820292F8672105EB850503EB85032D
:100F500022F0040283F86721002492E6204603F081
:100F600053FD1F4803F008FB1C4AD2F8183143F028
:100F70000403C2F81831002483E601A903A8FFF78F
:100F80003DFD01AA0DF10F010120FFF781FD0024B5
:100F900077E60023092B0BD803F122026A4412F8EA
:100FA000141C0E4A1A4482F8F4110133DBB2F1E743
:100FB0000C4A136843F040031360002461E6074ABB
:100FC000D2F8183143F00803C2F81831002458E66B
:100FD000012456E6002454E6FC1608001404002000
:100FE00010170800C821002070B59AB004460DF112
:100FF000440C574D0FCDACE80F000FCDACE80F00FF
:101000002B688CF800300BAD524E0FCE0FC596E812
:10101000030045F8040B297006AD4F4E0FCE0FC5E7
:1010200033682B8001AD4D4E0FCE0FC533682B704A
:101030004B4BD3F8183113F0407F08D1484B0022B6
:10104000C3F81C21474B4FF400025A6308E011A873
:1010500003F092FA002021E00133414AC2F81C312A
:10106000414B1B6813F0010F06D13D4BD3F81C31E7
:1010700042F20F718B42EFD9394BD3F81C2142F267
:1010800010739A4202D8FFF76DFB0DE0354B4FF419
:1010900000021A630BA803F06FFA00201AB070BDAB
:1010A00001332F4AC2F81C312F4B1B6813F0040F79
:1010B00006D12B4BD3F81C3142F20F729342EFD979
:1010C000284B4FF400021A63254BD3F81C2142F23F
:1010D00010739A4215D8224BD3F804311D78A42DF1
:1010E00014D0FFF717FBFFF729FB1F4A136823F003
:1010F00004031360A52D12D001A803F03DFA0020CF
:10110000CCE70BA803F038FA0020C7E7144AD2F85E
:10111000183143F08063C2F818310020BEE7104D4B
:10112000D5F8183143F00073C5F8183121782246FC
:101130000331D5F8000202F0BFFCC5F8440108B144
:101140000120ABE706A803F017FA0020A6E700BFCE
:1011500030170800541708006C17080080170800A3
:1011600014040020000E0E403C1F002070B5264BDA
:10117000B3F818315BB9FFF77DFD244B1B6813F002
:10118000010F26D0204B224AC3F8302170BD2148E0
:1011900003F0F2F900242546012604E0760001352B
:1011A000EDB20134E4B2032C0CD8174BD3F818314C
:1011B0001E42F3D005EB8500174B03EB800003F0D4
:1011C000DBF9EBE7104AB2F81A311B04C2F8183108
:1011D000D1E70D4BD3F84431002BD7D10A4BD3F8CC
:1011E00040010028D2D00430FFF7FEFE40B10B4B87
:1011F0001A68054BC3F84821094AC3F83021C5E7EE
:10120000084803F0B9F9C1E7140400203C1F00208E
:10121000D90908008000002090000020D021002083
:10122000E90B08009417080070B582B005462A4BF8
:101230001B680193002405E04FF47A7101A802F0C5
:10124000A1FF0446254B1B6813F0010F01D0002CB1
:10125000F2D02CB10124FFF70DFD204602B070BD85
:101260001F4ED6F8183123F00073C6F81831FFF777
:10127000ADFC0023C6F84431174B1B68019305E011
:101280004FF47A7101A802F07DFF0446134B1B68EE
:1012900013F0010F01D1002CF2D00CB10124DAE7D8
:1012A000FFF7A3FA0E4B93F80C319BB10C4BD3F81C
:1012B00008219378402B03D0AB42CCD00124CAE75D
:1012C0001379AB4201D00124C5E75479002CC2D078
:1012D0000124C0E70124BEE7D02100203C1F0020EC
:1012E00014040020024690F900C00CF1020C5FFAD1
:1012F0008CFC0023A52004E012F8011B48400133B8
:10130000DBB26345F8D3704730B583B02B4B1A1D61
:101310001A60C3F80421C3F80821002283F80C21C5
:10132000274B1B680193274B4FF400125A634FF46D
:1013300000021A634FF080721A63642101A802F060
:1013400021FF0028F9D01F4B4FF400121A631C4BE9
:101350001B6801934FF47A7101A802F013FF002873
:10136000F8D0174B1B680193002004E04FF47A710A
:1013700001A802F007FF144B1B6813F0010F01D105
:101380000028F3D020B1114803F0F6F803B030BDC7
:10139000FFF72BFAFFF76EFC0D4D05F1DC0420463C
:1013A000FFF7A0FF85F8E0002046FFF71DFE4FF491
:1013B0007A713E20FFF738FFE8E700BF14040020F1
:1013C000D0210020000E0E403C1F0020AC1708006A
:1013D0000400002038B504461C2003F0F3FE70B171
:1013E0000546224AD2F804320133C2F8043294F995
:1013F00000C00CF1030C5FFA8CFC002309E01C48D0
:1014000003F0BAF800202AE0E15CEA181171013318
:10141000DBB26345F8D3174B1B682B600023AB612D
:10142000124BD3F8401109B100230BE0C3F840512F
:10143000D3F808220132C3F8082201200FE001335B
:10144000DBB211468A69002AF9D11F2B08D88D61B9
:10145000064AD2F808320133C2F80832012038BDFA
:10146000034803F089F80020F9E700BF14040020C6
:10147000E8000020D0210020084BD3F8340160B1EF
:1014800010B58369054CC4F8343103F0A3FED4F8D9
:101490003831013BC4F8383110BD704714040020C6
:1014A00010B5594BDB6B13F0010F16D1574A136877
:1014B00043F080731360564803F05EF855494FF0CF
:1014C00030700860504B4FF0F0721A6048615A61FA
:1014D000514B524AC3F8302110BD4B4B4FF4001210
:1014E0001A614F4803F048F84B4A0023C2F83431E0
:1014F000C2F840319C4610E000EB8001464A02EB06
:1015000081021A44002182F857110133DBB2072B04
:10151000F2D90CF1010C5FFA8CFCBCF1070F25D855
:1015200060460CEB8C033C4A02EB830282F854C108
:10153000102382F85531002382F8563182F85F314A
:10154000202182F860114FF0010E82F861E182F8EB
:1015500062E182F8633182F86411372182F8651103
:10156000042182F8661182F86731D0E72A4C0423FF
:1015700084F80C32244BC4F810324FF48003C4F8C2
:101580001432012384F81832032384F81932254BCE
:10159000C4F81C32244BC4F82032231DC4F8243272
:1015A000C4F828424FF48073A4F82C3204F5037079
:1015B00002F090F8C4F800021C4B00221A60FFF7FA
:1015C000A3FE1B4B1B6813F0400F15D0194802F007
:1015D000D3FF194802F0D0FF04F5FA7002F0CCFFF7
:1015E00003F0B4F9D4F8183123F48033C4F8183177
:1015F000124BC4F830316FE7114802F0BDFF064BC3
:10160000064AC3F8302167E7000E0E40C4210020CF
:1016100010010020000C0E4014040020E90708000F
:101620004C01002091070800A90708003C1F00207A
:10163000C821002070000020C01708006D110800AC
:101640006401002008B5024BD3F83031984708BD3B
:1016500014040020416E7452783A2074696D656FED
:1016600075740A0D00000000416E7452783A206DC6
:10167000657373616765206661696C65640A0D0056
:101680000A0D556E657870656374656420414E542B
:10169000206D6573736167652073697A650A0A0D49
:1016A000000000000A0D4E6F2073706163652069B1
:1016B0006E20416E7451756575654170706C69631B
:1016C0006174696F6E4D6573736167650A0D000023
:1016D0000A0D5472616E736D6974206D6573736168
:1016E00067652074696D656F75740A0D00000000F0
:1016F0005363616E6E696E67200000004368616E1F
:101700006E656C20636C6F7365640A0D00000000E9
:101710003A20756E657870656374656420636861EE
:101720006E6E656C206576656E740A0D00000000B3
:10173000416E7454783A206D736720616C726561F4
:10174000647920696E2070726F67726573730A0D19
:1017500000000000416E7454783A2053454E2074C6
:10176000696D656F75740A0D00000000416E745458
:10177000783A204E6F20746F6B656E0A0D00000082
:10178000416E7454783A204E6F2053594E430A0DDF
:10179000000000000A0D414E54207472616E736D9A
:1017A0006974206661696C65640A0D00414E5420BD
:1017B0006661696C656420626F6F740A0D000000D9
:1017C000414E542076657273696F6E3A20000000B6
:1017D0007047704710B52F4B1B786BB12E4B5A7862
:1017E0002C4B9B789A4213D042F210712B4802F096
:1017F000C9FC002843D110BD264C6278284B53F811
:1018000022004378A370FFF7E5FD01232370E5E78D
:10181000214B9B784BBB1F4A53780133DBB253708B
:10182000082B03D01B4B00221A70DDE71A4C94F9E9
:10183000003030331B48037302F09EFE1A4802F05A
:101840009BFE2378194A03EB830102EB8101C97CDB
:1018500003EB830302EB830241F00103D3740D4BCE
:1018600000225A70124A5A60DCE70E4802F084FEE9
:10187000104802F081FE074B0D4A5A60D2E7094832
:1018800002F07AFE0B4802F077FE024B084A5A60DB
:10189000B1E700BF44060020640500204C0600208C
:1018A000081E0800F80100207000002068050020D4
:1018B000D11708007800002000EB8000094B03EBF3
:1018C0008003DB7C13F0010006D013F0080F06D173
:1018D00013F0040F01D1012070470320704704204A
:1018E000704700BF6805002070B505460078FFF717
:1018F000E3FF48B90446534E3046FFF7F3FC30711E
:10190000AA78514B9A7013E0504802F035FE00203F
:1019100097E0E31C2A19D1784B4AD1542B7803EB7A
:1019200083024B4B03EB82032344D9700134E4B2AE
:10193000072CEED9444C2046FFF7D4FCE0722B78FC
:10194000444EB3706A78F2702B78414C03EB8303FA
:1019500004EB83035A70AA7832712B7803EB83036C
:1019600004EB83039A703046FFF7BCFC70712B7850
:10197000394EB370EA7AF2702B7803EB830304EBF1
:101980008303DA722A7B32712B7803EB830304EB37
:1019900083031A736A7B72712B7803EB830304EB66
:1019A00083035A73AA7BB2712B7803EB830304EB96
:1019B00083039A733046FFF795FCF0712B78274E1E
:1019C000B370EA7BF2702B7803EB830304EB8303A1
:1019D000DA732A7C32712B7803EB830304EB8303E5
:1019E0001A743046FFF77EFC70712B781C4EB37072
:1019F0006A7CF2702B7803EB830304EB83035A7445
:101A00003046FFF76FFC3071AA7C164EF2702B78CF
:101A100003EB830304EB8304A2743046FFF762FCFC
:101A200030712B78104CA370FF23E3702046FFF732
:101A300059FC20710D4B1A680D4B9A600D4A5A6083
:101A4000012070BD9C010020D4010020041D08006D
:101A500068050020CC010020C4010020BC0100204A
:101A6000B4010020AC010020A4010020D0210020FE
:101A700044060020D517080010B582B0044644F291
:101A800001130193FFF718FF012805D0084802F061
:101A900073FD002002B010BD8DF8064001A8FFF7CD
:101AA00021FC8DF8070001A8FFF794FCF2E700BFC6
:101AB0003C1D080010B582B0044644F60133019382
:101AC000FFF7FAFE012819D10CB18DF8064001A8E4
:101AD000FFF708FC8DF807000B4B04EB840203EBC7
:101AE0008202D27C04EB840403EB840342F0020202
:101AF000DA7401A8FFF76EFC02B010BD034802F0D3
:101B00003BFD0020F8E700BF680500206C1D0800C1
:101B100000B583B045F6013301930020FFF7CCFEFA
:101B2000012806D00A4802F027FD002003B05DF826
:101B300004FB01A8FFF7D6FB8DF80700054AD37C0C
:101B400043F00203D37401A8FFF744FCEEE700BFA3
:101B5000981D08006805002010B582B0044644F6C0
:101B600001430193FFF7A8FE032805D00E4802F0B9
:101B700003FD002002B010BD8DF8064001A8FFF75C
:101B8000B1FB8DF80700094B04EB840203EB8202E2
:101B9000D27C04EB840403EB840342F00802DA7481
:101BA00001A8FFF717FCE5E7CC1D08006805002039
:101BB00010B50B4B9870002307E0DA1C11F803C036
:101BC000074800F802C00133DBB2072BF5D9044CFB
:101BD0002046FFF787FBE0722046FFF7FBFB10BDB6
:101BE0009001002010B50B4B9870002307E0DA1C21
:101BF00011F803C0074800F802C00133DBB2072B1D
:101C0000F5D9044C2046FFF76DFBE0722046FFF744
:101C1000E1FB10BD8401002008B5164B186830B3F5
:101C20000268154BDA6002791A7400F1060C002381
:101C300006E01CF80310104A1A4411750133DBB298
:101C4000072BF6D9827B0C4B1A77C27B5A77028A14
:101C5000DA83827C83F82020C27C83F8212090F9EB
:101C6000142083F82220FFF707FC012008BD002084
:101C7000FCE700BF4805002044060020002816DBD2
:101C80002B230B7008B920230B70C0B2632800D936
:101C90006320094BA3FB0023DB0803F130024A70E9
:101CA00003EB8303A0EB43003030887070472D2393
:101CB0000B704042C0B2E9E7CDCCCCCC08B5084BA4
:101CC0001B6813F0400F03D1064B074A5A6008BD4A
:101CD000064802F051FC034B054A5A60F7E700BF83
:101CE000C821002044060020D3170800F81D080072
:101CF000D117080008B5024B5B68984708BD00BFC4
:101D000044060020416E7441737369676E436861D5
:101D10006E6E656C206572726F723A206368616ED8
:101D20006E656C206973206E6F7420756E636F6EC4
:101D3000666967757265640A0D000000416E74552E
:101D40006E737369676E4368616E6E656C20657251
:101D5000726F723A206368616E6E656C206E6F748C
:101D600020636C6F7365640A0D000000416E744F50
:101D700070656E4368616E6E656C206572726F721D
:101D80003A206368616E6E656C206E6F74207265B8
:101D90006164790A0D000000416E744F70656E53E6
:101DA00063616E6E696E674368616E6E656C206517
:101DB00072726F723A206368616E6E656C206E6F2E
:101DC000742072656164790A0D000000416E7443ED
:101DD0006C6F73654368616E6E656C206572726FBF
:101DE000723A206368616E6E656C206E6F74206F4E
:101DF00070656E0A0D000000414E5420415049208C
:101E000072656164790A0D00D40100209C010020F4
:101E1000CC010020C4010020BC010020B40100203E
:101E2000AC010020A40100200023032B0BD803EBFE
:101E300043018A0004498A5C12B90133DBB2F4E73A
:101E4000024A0A63704770476C060020511E080062
:101E5000F8B53D4B3D4A1A63002425E004EB4402EB
:101E6000394B03EB82030022DA7005EB4502364B57
:101E700003EB8203DA789B789A4207D005EB4501A1
:101E8000314B03EB81039A70012A53D005EB4503D4
:101E90009B002D4A0021D1542D4B53F835202D4B5A
:101EA00043F826200134E4B2032C4CD82546284BB5
:101EB00003EBC4031E79284F04EB4403224A12F8B3
:101EC0002330002BEED0254B136304EB440302EBCD
:101ED00083000A21043002F055F90028E2D01C4B9F
:101EE00003EBC4035B7973B957F82620184B53F8FA
:101EF00034309343B2D004EB4402134B03EB820320
:101F00000122DA70B1E757F82620114B53F834302C
:101F10001A4207D004EB44020B4B03EB820301226D
:101F2000DA70A2E704EB4402074B03EB82030022C2
:101F3000DA709AE7044B03EB810301225A70084AD6
:101F400012689A60A2E7F8BD6C060020291E0800FE
:101F5000C8040800400C0E403C0C0E40511E080006
:101F6000D021002000EB4000034B03EB8003987866
:101F7000012800D0002070476C06002000EB4000D4
:101F8000034B03EB80035878012800D000207047F2
:101F90006C06002000EB4000024B03EB80030022A4
:101FA0005A7070476C06002010B500EB4002094BD8
:101FB00003EB82039C78012C02D00024204610BD44
:101FC000044B03EB8200043002F0DCF80028F5D16A
:101FD000F3E700BF6C06002008B5002315E01C499C
:101FE00003EB43024FEA820C01EB0C00002201F8E4
:101FF0000C2042708270C270826003EB430C4FEA87
:102000008C0001444A600133DBB2032BE7D9114A4B
:102010004FF400331364104B07211964D26CDB6C4E
:102020000E4B4FF48061C3F880114FF40062C3F887
:10203000802119601A60064B094A1A63094A13681D
:1020400043F002031360084802F096FA08BD00BF8F
:102050006C060020000C0E40000E0E4000E100E077
:10206000291E0800C8210020DC20080008B5024B0A
:102070001B6B984708BD00BF6C060020002301E0E1
:102080000133DBB2032B0BD8104A52F833208242C3
:10209000F6D10E4A02EBC30212798A42F0D100E077
:1020A0000423042B10D00A494A6C02434A64094AAB
:1020B00003EB4301012002F821000749096803EB03
:1020C000430302EB83025160704700BFC80408005D
:1020D000000C0E406C060020D02100204275747464
:1020E0006F6E207461736B2072656164790A0D00F4
:1020F000FEE7FEE7FEE7FEE7FEE7FEE7FEE7FEE7B8
:10210000FEE7FEE7FEE7FEE7FEE7FEE7FEE7FEE7A7
:10211000FEE7FEE7FEE7FEE7FEE7FEE7FEE7FEE797
:10212000FEE7FEE7FEE7FEE7FEE7FEE7FEE7FEE787
:10213000FEE7FEE7FEE7FEE7FEE7FEE7FEE7FEE777
:1021400000230FE05AB203F01F0052090121814021
:102150000D4802F1200C40F82C10603240F822109B
:102160000133DBB21D2BEDD900230AE09A0002F106
:10217000604202F56442054951F8231011600133B1
:10218000DBB2072BF2D9704700E100E0842208009F
:102190000B4A136823F0804313600A4B1A6801321C
:1021A0001A601A68084BA3FB02139B094FF47A715B
:1021B00001FB13231BB9054A1368013313607047F1
:1021C000C4210020D0210020D34D6210CC2100205A
:1021D00070B50D4BDE6C16F4003611D10B4B4FF47D
:1021E0008062C3F8802170BD6D000134E4B21F2C01
:1021F000F4D83542F8D000212846FFF73FFFF3E737
:1022000000240125F3E700BF000C0E4000E100E0D0
:1022100070B50D4BDE6C16F0070611D10B4B4FF469
:102220000062C3F8802170BD6D000134E4B21F2C40
:10223000F4D83542F8D080212846FFF71FFFF3E796
:1022400000240125F3E700BF000E0E4000E100E08E
:1022500008B5002000F04CF8032000F049F80120F8
:1022600000F046F8062000F043F8022000F040F8A5
:10227000042000F03DF8052000F03AF8072000F0B7
:1022800011F8FEE7F000F0F000F0F0F0F0F0505040
:10229000503030F0F0F020F020F0004040F0F0F04E
:1022A000F01000000E4B03EBC0035B79012B0FD045
:1022B0000B4B03EBC0031A790A4B03EB8203084A6A
:1022C00052F830201A60084B002203F83020704783
:1022D000034B03EBC0031A79044B03EB8203EEE7D5
:1022E000E8040800340C0E40A0060020300C0E401C
:1022F0000E4B03EBC0035B79012B0FD00B4B03EBB1
:10230000C0031A790A4B03EB8203084A52F83020C3
:102310001A60084B002203F830207047034B03EB90
:10232000C0031A79044B03EB8203EEE7E8040800CC
:10233000300C0E40A0060020340C0E4038B50024AE
:1023400022E0314A02EBC4029388013B9BB29380A6
:1023500013BB2E4800EBC40319792D4A52F82130E3
:1023600050F83400434042F82130274B03EBC403BC
:102370005A889A8010E02046FFF7BAFF224B0222CB
:1023800003F835200134E4B20A2C3BD825461E4B15
:1023900013F83430012BD4D01B4B13F83530022BFB
:1023A000F0D1194B03EBC5035B88002BE3D0142B52
:1023B00016D0154A02EBC5029388013B9BB293806D
:1023C000002BDBD19379012B0ED02046FFF76AFF5B
:1023D0000D4B03EBC5035A889A8001229A71CDE711
:1023E0002046FFF75FFFC9E72046FFF781FF064B56
:1023F00003EBC503B3F90220C2F114029A80002254
:102400009A71BBE738BD00BFA0060020E8040800B1
:10241000380C0E4010B4094C04EBC0031979084A7B
:1024200052F8213054F83040634042F82130054BD7
:10243000002203F8302010BC704700BFE8040800F9
:10244000380C0E40A0060020044B012203F8302077
:1024500003EBC00041808180704700BFA0060020D0
:10246000054B022203F8302003EBC000418081803D
:1024700001238371704700BFA006002030B583B0F0
:10248000002405E014212046FFF7EAFF0134E4B2FE
:102490000A2CF7D9142524E0294B1B68019301214C
:1024A00001A801F06FFE0028F9D0FFF747FF013CBB
:1024B000A4B2002CF0D1142D01D000230DE0C821CE
:1024C00001A801F05FFE0028F9D0F6E7691E1D4A59
:1024D00002EBC30251800133DBB20A2BF6D9013D76
:1024E000EDB20DB11424E4E7FFF728FFC82101A8DD
:1024F00001F048FE0028F9D00AE0124B002203F850
:10250000352003EBC5035A809A809A710135EDB2EC
:102510000A2DF2D90820FFF7C5FE0920FFF7C2FEF9
:102520000A20FFF7BFFE084A136843F00103136057
:10253000064802F021F8034B054A9A6503B030BD06
:10254000D0210020A0060020C8210020642508001A
:102550003D23080008B5024B9B6D984708BD00BF9E
:10256000A00600204C45442066756E6374696F6E4A
:10257000732072656164790A0D000000094A1368CE
:102580001860012119710849096899600C331360BA
:1025900002F54172934200D07047A2F541731A1DB3
:1025A0001A60F9E7FC060020D0210020044A1368D5
:1025B000013B13601BB9134642F210721A60704758
:1025C000100200200C4B1A68824204D00B4A93423E
:1025D00001D00C33F7E7094A93420BD01879C21E99
:1025E000D2B2022A07D800221A601A71044A12686D
:1025F0009A607047FF20704700070020000A002003
:10260000D021002000B5264B4FF0000C83F804C306
:102610000122C3F8082310E000EBC0010B010833CE
:1026200020490B44043300219954013292B27F2A8D
:10263000F2D90CF1010C5FFA8CFCBCF11F0F0FD822
:10264000604618490CEBCC031A018B184FF0010EB1
:1026500001F802E000225A609A60C3F88C20E6E795
:1026600000230FE00E4903EB430082000A440020E0
:102670005060107203EB430C4FEA8C021144C860A7
:102680000133DBB23F2BEDD9054B1A1D1A60002236
:10269000C3F80C23044AC3F810235DF804FB00BF01
:1026A000FC060020100A0020AD25080008B5024BEA
:1026B000D3F81033984708BDFC0600202DE9F041FF
:1026C00006460846002976D01446C1F3C71211F019
:1026D0007F0F01D00132D2B2384B93F80433134448
:1026E000202B01DC002547E0344AD2F80C3343F0BC
:1026F0000103C2F80C3300205DE0304AD2F80C33FD
:1027000023F00203C2F80C334AE090331A78002A0F
:10271000FBD01D46002205F8042B80280BD9A0F120
:1027200080078020254AD2F808235A60986000214B
:10273000C3F88C1008E00027F4E703F10C0C14F840
:10274000012B0CF8012001319A688A42F5D872B643
:1027500033683BBB356062B6DFF86080D8F80803A9
:10276000FFF70CFFD8F808330133C8F8083313B962
:102770000122C8F808233846E0B172B60F4B93F82F
:102780000423013283F8042362B693F804331C2B2C
:10279000B3D90A4AD2F80C3343F00203C2F80C331F
:1027A000074BB3E71A46D3F88830002BFAD1C2F8AA
:1027B0008850D0E72868BDE8F08100BFFC06002003
:1027C000100A0020016809B1134B08E0134AD2F83F
:1027D0000C3343F00403C2F80C33704790331A1DD6
:1027E000914202D00E4A9342F8D10D4A93420BD047
:1027F000D1F88820026001221A70084A92F8043346
:10280000013B82F804337047044AD2F80C3343F09A
:102810000803C2F80C337047100A0020FC060020A1
:10282000101C0020064B1A68824204D0054A9342CD
:1028300001D00C33F7E7034A934200D01971704777
:1028400000070020000A0020074B1B681B6A13F0DA
:10285000010F08D0044B9A6822F004029A6001220A
:10286000DA60024A1A617047101C0020C128080073
:10287000074B1B681A6A12F0020F08D0186B044A43
:10288000536999685B68013BC854024B13617047F8
:10289000101C002099280800074B1B681B6A13F0C6
:1028A000010F08D0044B9A6822F002029A600122BC
:1028B000DA60024A1A617047101C0020C128080023
:1028C000114AD368013BD360B3B91346127E013A73
:1028D000D2B21A7659691031596103F507739942DA
:1028E0000BD032B9084AD2F81C3223F00103C2F8E7
:1028F0001C32054B054A1A617047A3F5077303F1B3
:102900001C015961EDE700BF101C0020412908009F
:1029100008B540F6B831074801F034FC40B1064B29
:10292000D3F81C2242F08062C3F81C22034A1A61C9
:1029300008BD00BF1C1C0020101C00203D2A080000
:10294000384B1B7E002B6CD010B5364B5B695A7B25
:10295000012A02D0022A3AD010BD1B68314A5268BF
:102960001068834208D0304801F006FE2D4A936873
:1029700043F080739360EFE70221FFF753FF294A8A
:10298000936843F0050393605069047B13685968AA
:1029900041EA04415960526802F10801C3F8081184
:1029A0005168C3F80C114FF4005159624FF4807113
:1029B000C3F820115268012A03D01A4B1B4A1A612E
:1029C000CAE7827B002AF8D102221A60F5E7197B58
:1029D000090441F48051134802685468214351604E
:1029E000816841F0020181605968012914D0996819
:1029F000C2F800115B68013BC2F804314FF4805308
:102A000053620123C2F820311360094B1A68054B49
:102A1000DA60084A1A619FE703231360064A0261DD
:102A20009AE77047101C0020D82D0800B12A080032
:102A3000D0210020112908007128080038B5184B52
:102A4000D3F81C3213F0807F0BD1154BD3F81C3216
:102A500013F0806F20D1124B0122DA60114A1A6103
:102A600038BD0F4C23F08073C4F81C3263681868BB
:102A700001F0CAFF0C4801F07FFD254655F8043FE0
:102A800006211868FFF7CEFE2846FFF79BFEA368D5
:102A900023F00503A360D8E7044801F06DFDDAE7F1
:102AA000101C0020C1280800FC2D08001C2E080066
:102AB00038B50E4B9B6813F0010F00D038BD0B4D9D
:102AC0002C4654F8043F03211868FFF7ABFE20465C
:102AD000FFF778FE6B699B7B13B9054A2A61EDE726
:102AE000024B0122DA60034A1A61E7E7101C00205A
:102AF00049280800C128080008B5274A136943F48B
:102B000080231361254B0022C3F81C2203F11C0112
:102B1000C3F8201259611A760FE0204B03EB021321
:102B2000002183F82910022083F82A005962D96114
:102B3000196283F828100132D2B21F2AEDD9174B3F
:102B4000174A1A6000215960996080211160154A66
:102B50001268DA600121144801F014FB0028F9D052
:102B60000E4B1A6811491161242111601A68002165
:102B700051604FF4807151626FF4807191620C4A20
:102B80004FF48021C2F8801111600A4A1A610A4884
:102B900001F0F2FC08BD00BF00040E40101C002034
:102BA00000400840D02100201C1C00201D1D0200F8
:102BB00000E100E041290800402E080008B5024B62
:102BC0001B69984708BD00BF101C0020154AD2F8A9
:102BD0001C3243F00103C2F81C32124BD3F81C32F2
:102BE00013F0010F1DD000B583B00F4B0F4A1A65CB
:102BF0000C4B1B699847FFF759FD02F05BF80C4B33
:102C00001B680193012101A801F0BCFA0028F9D04A
:102C1000044BD3F81C3213F0010FE6D103B05DF87A
:102C200004FB7047101C002000120E40010000A59C
:102C3000D02100201E4B1B7E202B36D010B572B643
:102C40001B4CD4F820324FF0020C83F80DC05A60B0
:102C50001873996083F80EC0002243F8102B227E6F
:102C600001322276C4F8203204F50774A34211D051
:102C70000F4BD3F8203200225A735A601A739A60AD
:102C8000022199731A6062B60A4B1B68934208DBF3
:102C9000012010BDA4F5077303F11C02C3F8202224
:102CA000E6E7FFF793FF0120F3E70020704700BF3E
:102CB000101C0020C4210020F8B51D461E4B1B7EB1
:102CC000202B36D006460C461C48FFF7F7FC07467B
:102CD00080B372B6184BD3F82022106001215173D3
:102CE00054601673957300219160197E0131197635
:102CF0001032C3F8202203F507739A4212D00E4B0C
:102D0000D3F8203200225A735A601A739A60022153
:102D100099731A6062B60A4B1B6893420ADAFFF78E
:102D200055FF07E0A3F5077303F11C02C3F8202247
:102D3000E5E700273846F8BD101C0020141C0020D1
:102D4000C4210020204AD36A126A134013F4807F02
:102D500010D01E4AD2F81C1241F08071C2F81C1229
:102D600011684FF4005088624FF40070C1F82001E0
:102D70001749116113F4005F17D014490A684FF422
:102D8000005090624FF40070C2F820014968496811
:102D9000012905D00D494969897B09B902211160D2
:102DA0000A498A6822F001028A6013F4805F0AD01F
:102DB000064A13684FF4805199620221C3F820112A
:102DC0001960044B1361704700400840101C00203C
:102DD0003D2A080071280800545749207472616E1A
:102DE000736D6974206D657373616765206F7574A9
:102DF000206F662073796E63210A0D0020545749B5
:102E0000204E41434B2E204D6573736167652064EE
:102E1000656C657465642E0A0D00000054574920E6
:102E200052782054696D656F75742E204D657373EB
:102E30006167652064656C657465642E0A0D000029
:102E4000545749205065726970686572616C2052F0
:102E5000656164790A0D0000234B1A6AFAB1224BAE
:102E60001B6913F4C00F1DD110B51F49C98BD1B117
:102E70001D4C43F480032361A28BAA21606902F0F8
:102E80005FFAE38B63626269A26223681278DA6098
:102E900001221A6023689A6803225A6110BDDB8BF5
:102EA000002BDCD1704702211068FFF7BBFC0E4BF2
:102EB0001A6942F400121A611A6A5168596202F1E1
:102EC00008019962107A1B7B012B09D0064B1A6806
:102ED000012111601B68C0B2D86003225A61DDE78E
:102EE000FDF70EF9000EF1E7341E00202C4B1B6994
:102EF00013F4801F52D110B52A4C2269284B93F845
:102F00000EC0012101FA0CF10A43226142685A60A5
:102F100082689A60027B1A73427B5A7302695A6113
:102F200042699A61C2899A831A6942F480121A61CD
:102F30001A68022111601A68212151600021516133
:102F40004FF0FF3191611849116351639163D1636F
:102F50005B7B012B10D01248817B90F90E3001F081
:102F60001F015B0901228A40104903F1600441F806
:102F7000242041F8232010BD094CA28BAA216069AE
:102F800002F0DEF9A38B63626269A26223681278A1
:102F9000DA6003225A6101221A60DCE700207047E0
:102FA000341E002000040E400130300500E100E036
:102FB000036913F4801F2AD010B50446827B90F970
:102FC0000E3002F01F025B09012101FA02F21048E3
:102FD000203340F82320A27B94F90E3002F01F0228
:102FE0005B099140603340F8231000236360636104
:102FF000A361236107E005211868FFF713FC04F1C2
:103000002000FFF7DFFB236A002BF4D110BD7047CF
:1030100000E100E0437B012B09D0C38B4BB9036A6D
:103020000BB1002070470123C3831846704700206E
:1030300070470020704708B5437B012B0FD0C38B2E
:103040007BB9036A0BB1002008BD802902D8C18377
:103050000120F9E7044801F08FFA0020F4E700208E
:10306000F2E70020F0E700BF90320800437B012B1D
:1030700014D0C38B53B9036913F4000F01D100209E
:10308000704723F40003036103207047036913F4BE
:10309000800F01D101207047022070470520704742
:1030A00008B50A4B0A4A1A6014229A7300225A6021
:1030B0001A625A619A839A611A61DA621A63054A3E
:1030C0005A63054801F058FA08BD00BF341E0020BD
:1030D00000800040592E0800AC32080008B5024BB1
:1030E0005B6B984708BD00BF341E0020124AD36AAC
:1030F00043F00103D362104BDB6A13F0010F1AD0C7
:1031000000B583B00D4B0E4A1A650B4B5B6B9847AD
:10311000FFF7CCFA0B4B1B680193012101A801F0CA
:1031200031F80028F9D0044BDB6A13F0010FE9D124
:1031300003B05DF804FB7047341E002000120E40FF
:10314000010000A5D021002010B582B08DF8071035
:103150000DF1070201212030FFF7B0FA044618B143
:10316000044B1B68002B02DB204602B010BDFFF7AA
:10317000BDFFF9E7C421002010B50C4609B920466F
:1031800010BD2030FFF79AFA04460028F7D0034B11
:103190001B68002BF3DAFFF7A9FFF0E7C42100203A
:1031A00010B53A4B1B681C69DA6912F0010F30D078
:1031B00014F0010F2DD0354A527BA2B9334A12695F
:1031C00012F4800F0FD03148C18B013989B2C1830D
:1031D00049B922F48002026142F400020261012234
:1031E0009A6102221A60294B1A689068C0B21B7B50
:1031F000012B29D0254B9A691268107099690A68C9
:1032000001320A609A69106859699B8B0B44984295
:103210001ED01E4B1B68DA6912F0020F13D014F097
:10322000020F10D019494A6A013A4A62B2B10B46FC
:103230008A6A511C996250781B7B012B0AD0134B70
:103240001B68C0B2D86010BDFCF75AFF000ED1E772
:103250001160DEE7FCF754FF000EF0E702229A61EE
:103260000A4B1B6913F4001FEDD0084C23F4001324
:103270002361236B1343236354F8203F0321186811
:10328000FFF7D0FA2046FFF79DFADCE7341E002056
:103290000D0A535049206D65737361676520746F23
:1032A0006F206C617267650A0D0000005350492061
:1032B0005065726970686572616C205265616479ED
:1032C0000A0D000038B59D4B1B681A6854691269D5
:1032D00012F4002F1BD014F4002F18D05A68D16BB1
:1032E0009A68114240F0AC80944A51680A6842F0F2
:1032F0000100086022F0060242F001020A605A7BD7
:10330000022A00F08F805A7B032A00F093808B4BB7
:103310001B681A68116911F4007F1AD014F4007F39
:1033200017D0196B013919639069002900F0C28028
:103330005A6B511C596350781B7B012B00F0B680EF
:103340007E4B1B681B68C0B2D8617C4B1B685B69F5
:1033500098477A4B1A681368196911F0010F19D050
:10336000596911F0010F15D09869C0B2137B012B78
:1033700000F0BB80C0B2FF2800F0BB806F4B1A6822
:10338000116A0968087059680B6843F004030B6000
:1033900093699847694B1B681A68126912F0080F05
:1033A0001FD014F0080F1CD05A7B012A40F2A680CF
:1033B000624A51680A6842F004020A601968D1F84A
:1033C00010210132C1F810211968D1F80051D869D3
:1033D0009A8C0244954200F0AD801A680121C2F82F
:1033E00014111A68126912F0100F00F0C98014F05D
:1033F000100F00F0C5801A6912F4001F40F0A08081
:103400004E4B19684B7B012B40F2AA8000230A68BF
:10341000526912F4007F40F0AC80632B00F2A98067
:103420000133F4E7DA6A002A7FF46DAF1A680021ED
:10343000D16168E71A68936843F00103936066E717
:103440003E4A51680A6822F001020A601A6912F4C1
:10345000001F0CD1394B1B685A7B022A1ED05A7BA5
:10346000032A7FF454AF1B6801229A604FE71A6861
:103470001021D1601A6922F400121A61DB6A052159
:103480001868FFF7CFF92D4D28682C30FFF79AF90F
:103490006A68136843F002031360DBE719680122CE
:1034A000C1F804211968C1F81421D8E7FCF728FEF7
:1034B000000E45E74FF40071D160204D69680A683D
:1034C00042F002020A60DB6A03211868FFF7AAF9DA
:1034D00028682C30FFF776F92B681A6922F400125D
:1034E0001A611B6801229A602FE7FCF709FE000EA3
:1034F00040E7124A9368013393603FE70022DA8481
:103500001A6922F480021A6142F400021A610B4A1D
:10351000D1680131D1601269527B12B95A68996839
:1035200011631A6840F20221C2F820111A680821BA
:10353000D16056E7C1F800014FE700BF6C1E0020C4
:10354000DB6A03211868FFF76DF90E4C20682C30F8
:10355000FFF738F92268136923F4001313614FE76A
:103560000B684FF40072C3F820210B681022DA6058
:103570004CE7044B1B695B7B13B94B688A681A6381
:1035800038BD00BF6C1E002010B5504B1C69E36AAB
:10359000002B3ED0236913F4C00F28D1637B13B9ED
:1035A0006368A2685A63E38C002B36D0236943F426
:1035B00080032361A28C0021E06901F0C1FEE26971
:1035C0002368C3F80021E2692368C3F8082123684F
:1035D000E28CC3F804212368E28CC3F80C21236831
:1035E00008229A60236840F20112C3F82021374B69
:1035F0001B6993F828300E2B58D00F2B5BD00D2B66
:103600004FD0334800F0B8FF304B03F184021A6109
:103610004BE0E38C002BEAD0BCE7E36A0221186898
:10362000FFF700F9294B1B691A6942F400121A616D
:103630005A7B032A12D0DA6A08321968C1F80821C5
:10364000D96A1A684968C2F80C111A681021916089
:103650001B684FF48072C3F82021C8E7DA6A51680A
:10366000196302F108015963107A1B7B012B14D0F6
:10367000164B1B691A680121D1601A680821116074
:103680001A68402111601A68C0B2D0611A684FF4FC
:10369000007191605B699847A9E7FCF731FD000E66
:1036A000E6E70A4B03F114021A6110BD074B03F160
:1036B0004C021A61F9E7054B03F184021A61D3F851
:1036C000BC2022F00102C3F8BC20EEE76C1E0020F3
:1036D000503B0800F0B503460278032A5BD0042A69
:1036E00061D0022A01D00020F0BD1A256FF0080633
:1036F00008274FF40C6C4848026912F4801F40F010
:103700008880464C226990F828E0012101FA0EF1E8
:103710000A4322615A6842609A6882601A7B027387
:103720005A7B42739A69C261DA6902621A8C828496
:10373000026942F4801202611A6942615A69826127
:103740000268502111600268C2F804C002689760E4
:103750000268D66002681562427B022A2CD0437B45
:10376000032B51D090F8282090F9283002F01F0246
:103770005B09012101FA02F2294C603344F823204D
:1037800090F8282090F9283002F01F025B09914040
:1037900044F82310A8E730254FF0FF360027DFF864
:1037A00084C02148A8E700256FF400264FF40027C5
:1037B000DFF878C01E489FE799690268C2F80011D7
:1037C0009B6901330268C2F8103102680123C2F814
:1037D00004310268C2F81431002202620168154AFD
:1037E000C1F808210168C1F818210268C2F80C313B
:1037F0000268C2F81C31036840F20112C3F82021AC
:1038000003680D4A9A60AAE703684FF400229A60A1
:10381000A8E7002068E700BFF01E002000040E406B
:1038200000E100E0CE184500801E0020FF18410096
:10383000B81E00202C1F002018000800036913F494
:10384000801F32D010B5044690F8282090F9283017
:1038500002F01F025B09012101FA02F21348203332
:1038600040F8232094F8282094F9283002F01F0211
:103870005B099140603340F8231000236360E361EB
:10388000236223616361A36107E005211868FEF7E5
:10389000C9FF04F12C00FEF795FFE36A002BF4D179
:1038A000034B044AC3F8C42010BD704700E100E098
:1038B0006C1E002089350800437B012B00D0704727
:1038C000436882685A63FAE7437B012B00D0704754
:1038D000436882681A63FAE7437B023BDBB2012B41
:1038E00009D9C38C4BB9C36A0BB1002070470123BF
:1038F000C38418467047002070470020704708B501
:10390000437B023BDBB2012B0FD9C38C7BB9C36A6B
:103910000BB1002008BD802902D8C1840120F9E73D
:10392000044800F029FE0020F4E70020F2E7002020
:10393000F0E700BF683B0800437B023BDBB2012B92
:1039400014D9C38C53B9036913F4000F01D10020BB
:10395000704723F40003036103207047036913F4E5
:10396000800F01D101207047022070470520704769
:1039700008B51E4B1E4AC3F884200D2283F8AC20E4
:103980000022C3F88820C3F8B020C3F8A020A3F811
:10399000A820C3F8A420C3F89420164959610E2129
:1039A00083F83C109A611A641A631A875A635A6240
:1039B0001149D9640F2183F874101A659A679A66C1
:1039C000A3F87020DA66DA6503F184011961C3F89F
:1039D000BC20C3F8C820C3F8CC20C3F8D020074AC5
:1039E000C3F8C420064800F0C7FD08BD6C1E0020C7
:1039F0000000094000400940008009408935080066
:103A0000843B080008B5024BD3F8C430984708BD82
:103A10006C1E0020164BD3F8BC2042F00102C3F804
:103A2000BC2003F184021A61114BD3F8BC3013F0AF
:103A3000010F1CD000B583B00E4B0F4A1A650C4B1A
:103A4000D3F8C4309847FEF731FE0C4B1B68019346
:103A5000012101A800F096FB0028F9D0044BD3F80F
:103A6000BC3013F0010FE7D103B05DF804FB7047E1
:103A70006C1E002000120E40010000A5D021002085
:103A800010B582B08DF80710C38C1BB100242046FE
:103A900002B010BD0DF1070201212C30FEF70EFE21
:103AA00004460028F3D0034B1B68002BEFDAFFF726
:103AB000B1FFECE7C421002010B5C38C13B1002482
:103AC000204610BD2C30FEF7F9FD04460028F7D043
:103AD000034B1B68002BF3DAFFF79CFFF0E700BFF6
:103AE000C421002008B5074B03F184011A4642F8AF
:103AF000C81B5A60D3F8D4200132C3F8D420FFF792
:103B0000E1FB08BD6C1E002008B5074B03F1140152
:103B10001A4642F8CC1B5A60D3F8D8200132C3F8B9
:103B2000D820FFF7CFFB08BD6C1E002008B5074B5F
:103B300003F14C011A4642F8D01B5A60D3F8DC203E
:103B40000132C3F8DC20FFF7BDFB08BD6C1E00206E
:103B5000496E76616C6964205353502061747465BA
:103B60006D70740D0A0000000D0A535350206D65EE
:103B7000737361676520746F6F206C617267650A8B
:103B80000D000000535350205065726970686572D3
:103B9000616C732052656164790A0D0008B5314B80
:103BA0001B689A681AB15B6813F4001F0CD02D4B88
:103BB0001B6893F82230083B072B4ED8DFE803F050
:103BC0002B4D4D4D4D30353A02211068FEF72AFE3F
:103BD00024490B685A6842F400125A609A68083205
:103BE0001868C0F8082198681A684068C2F80C0183
:103BF0001A68102090600A790132D2B20A71052A3F
:103C000003D98A6842F080628A601B684FF4807230
:103C1000C3F82021CBE7134B03F10C021A6008BD57
:103C2000104B03F130021A60F9E70E4B03F1540216
:103C30001A60F4E70B4B03F178021A600A4B1B6819
:103C4000002BECDAA2F178031B79002BE7D1783A4C
:103C5000936823F001039360E1E7024B03F17802DC
:103C60001A60DCE74C1F0020C421002010B52C4B4B
:103C7000D3F89C301A68116911F0080F19D05169F6
:103C800011F0080F15D0D2F810110131C2F810113F
:103C90001968D1F8104158691A8C0244944215D021
:103CA000DB6998471E4BD3F89C301B680122C3F890
:103CB00014211B4BD3F89C201368196911F0100FC5
:103CC00003D05B6913F0100F03D110BDC1F81001D0
:103CD000E6E7936803211868FEF7A4FD104CD4F8BA
:103CE0009C000830FEF76EFDD4F89C305A6822F430
:103CF00000125A601A684FF40071C2F820111B6854
:103D00001022DA60237913B1013B2371DDE7054806
:103D100000F032FC024A936843F000739360D4E7EA
:103D20004C1F00204C40080003460278012A5AD05C
:103D3000022A5AD12F48426812F0010F57D110B40D
:103D40002D4C216990F822C0012202FA0CFC41EAB4
:103D50000C01216159684161598801849968816128
:103D6000D968C161416811434160016850240C6009
:103D700001684FF40C644C60016808248C60016891
:103D80006FF00804CC6001681A240C625C6801685A
:103D9000C1F800415B6813440168C1F81031036841
:103DA000C3F804210368C3F81421036840F2011129
:103DB000C3F8201190F8221090F9223001F01F0171
:103DC0005B0902FA01F10D4C603344F8231090F8BE
:103DD000221090F9223001F01F015B098A4044F85B
:103DE000232010BC70470648A5E70020704700203C
:103DF000704700BF581F002000040E4000E100E0A3
:103E0000C41F0020436983B310B5044690F82220F4
:103E100090F9223002F01F025B09012101FA02F23F
:103E20001248203340F8232094F8222094F92230BD
:103E300002F01F025B099140603340F82310002319
:103E40006361A361E361636007E005211868FEF721
:103E5000E9FC04F10800FEF7B5FCA368002BF4D1DF
:103E6000034B044AC3F8A02010BD704700E100E0F6
:103E70004C1F00209D3B08001C4B1D4A9A670022E6
:103E8000C3F88020C3F88C20A3F89820C3F89020B2
:103E9000DA67082183F89A101649D9605A611A62C4
:103EA0009A855A621A610D2183F82E1012491963FE
:103EB0009A635A64A3F850209A645A630E2183F8D7
:103EC00052100E495965DA659A66A3F87420DA66CD
:103ED0009A650F2183F8761003F1780119609A60D2
:103EE0001A71074AC3F8A020704700BF4C1F00207A
:103EF00000060E40000009400040094000800940D3
:103F00009D3B080008B5024BD3F8A030984708BD88
:103F10004C1F0020134B9A6842F001029A6003F193
:103F200078021A600F4B9B6813F0010F19D000B58F
:103F300083B00D4B0D4A1A65FFF7E4FFFEF7B6FBA1
:103F40000B4B1B680193012101A800F01BF900280D
:103F5000F9D0044B9B6813F0010FEAD103B05DF870
:103F600004FB70474C1F002000120E40010000A50A
:103F7000D021002010B582B08DF807100DF1070296
:103F800001210830FEF79AFB044618B1044B1B6868
:103F9000002B02DB204602B010BDFFF7BBFFF9E7A4
:103FA000C421002010B50C4609B9204610BD0830C8
:103FB000FEF784FB04460028F7D0034B1B68002B58
:103FC000F3DAFFF7A7FFF0E7C421002008B5064B9E
:103FD00003F17802C3F89C20D3F8A4200132C3F87F
:103FE000A420FFF743FE08BD4C1F002008B5064B78
:103FF00003F10C02C3F89C20D3F8A8200132C3F8C7
:10400000A820FFF733FE08BD4C1F002008B5064B63
:1040100003F13002C3F89C20D3F8AC200132C3F87E
:10402000AC20FFF723FE08BD4C1F002008B5064B4F
:1040300003F15402C3F89C20D3F8B0200132C3F836
:10404000B020FFF713FE08BD4C1F00200A0D55419C
:10405000525420636F756E746572206F7574206F93
:10406000662073796E630A0D000000007047704788
:1040700000F1804000F50020C161704700F18040F0
:1040800000F50020036843F005030360704700F16A
:10409000804000F50020036843F00203036070478E
:1040A00000F1804000F50020006980B27047402890
:1040B00000D07047014B1960FBE700BF00200020D3
:1040C00008B5114B114AC3F8C420114A5A6426227C
:1040D000DA6510225A66EF229A6602221A640D4BA4
:1040E0000D4A1A600D4A4FF40001C2F880111160A8
:1040F0000B4A5A600B4800F03FFA0B4A136843F032
:104100000803136008BD00BF00000840000810004D
:1041100003C40C00002000206D40080000E100E016
:104120006F4008006C410800C821002008B5024B10
:104130005B68984708BD00BF0020002008B5084B09
:104140001B6E13F0100F05D0064B9A6801329A606F
:104150001B689847044B4FF40002C3F8802108BD48
:10416000000008400020002000E100E054696D6577
:10417000723120696E697469616C697A65640A0DCF
:10418000000000000268094B1B689A4206D8074BE2
:104190001B689B1A8B4206D200207047034B1B689A
:1041A0009B1A013BF6E70120704700BFD021002099
:1041B000A0F13003DBB2092B0BD9A0F14103DBB234
:1041C000052B09D9A0F16103DBB2052B07D9FF202C
:1041D00070473038C0B270473738C0B27047573870
:1041E000C0B27047092802D83030C0B27047A0F181
:1041F0000A03DBB2052B02D83730C0B27047FF206C
:104200007047092802D83030C0B27047A0F10A03C5
:10421000DBB2052B02D85730C0B27047FF20704781
:1042200030B585B0844608460022194B1446114625
:1042300013E001210EF1300E04F110056D4405F874
:104240000CEC0134E4B2BCFBF3F503FB15CC114DCF
:10425000A5FB0353DB080132D2B2092A07D8BCFB05
:10426000F3FE1EF0FF0FE4D10029ECD0E2E719B90C
:1042700030238DF80430012404F110036B44002234
:1042800003F80C2C01A901F0E3F8204605B030BD7D
:1042900000CA9A3BCDCCCCCC0A7803789A4206D09F
:1042A0002BB10A2B03D00D2B01D00130F4E70D2BDD
:1042B00020D842F2014222FA03F313F0010F26D173
:1042C0000A4608E00378202B23D00D2B23D00A2B9D
:1042D00023D03A2B23D092F800C003789C450BD111
:1042E000013012F8013F002BECD00A2BEAD00D2B45
:1042F000F1D1E7E70A46EEE70D2BCDD842F20142B5
:1043000022FA03F313F0010FC6D0002070470020FB
:10431000704701207047012070470120704701203D
:10432000704700BF704708B5094A5070002302214A
:104330003C20FEF7C1FC074B1B68002B05DB08BDCA
:104340000133054A9342FBD9F9E70023F9E700BF9F
:1043500010200020C42100209F86010010B50C46CB
:1043600040F08000FFF7DFFF012104E001344A1C28
:1043700005484354D1B22378002BF7D1024A3C20A0
:10438000FEF79AFC10BD00BF3402002010B50C46A9
:1043900040F08000FFF7C7FF002306E00133074A23
:1043A0001A44202082F82C00DBB2A342F6D300236B
:1043B000034A611C3C20FEF77FFC10BD3402002044
:1043C0006002002010B588B0344B93E803000690DB
:1043D000ADF81C10EC46324C0FCCACE80F0094E862
:1043E00003004CF8040BACF800102E4B2E4A5A6018
:1043F0002E4A4FF4007111632D4A12689A602821E9
:104400002C48FFF7BFFE0028F9D000238DF81F309D
:1044100001230DF11F0219463C20FEF74DFC01233C
:1044200006AA06213C20FEF747FC214B1A681D4BCB
:104430009A60C8211F48FFF7A5FE0028F9D00C2379
:104440008DF81F3000230DF11F0201213C20FEF7E3
:1044500033FC0820FDF726FF0920FDF723FF0A2083
:10446000FDF720FF40238DF81F3001230DF11F02BF
:1044700019463C20FEF720FC00236A4614213C200C
:10448000FEF71AFC0A4B1A68064B9A600A4A136830
:1044900043F01003136008B010BD00BFCC44080007
:1044A000D44408001020002025430800000E0E40D0
:1044B000D021002018200020C821002008B5024B80
:1044C0005B68984708BD00BF10200020383914727F
:1044D0005E6D000052415A4F522053414D335532C8
:1044E000204153434949202020000000054B1A6811
:1044F000013243F8842B9A4200D07047014B1A1DB9
:104500001A60FAE71C20002008B5064B064AC3F8DB
:10451000842093F88820054B03EBC2035B6898471F
:1045200008BD00BF1C200020B14608008C020020FE
:1045300008B54238172812D8DFE800F01816111114
:104540001114111111111111110E1A111C11111147
:10455000110C1112002000E00620FDF75BFF08BDE2
:104560000520FAE70420F8E70320F6E70220F4E745
:104570000120F2E70720F0E710B5024603460021CC
:1045800001E0013101331C78002CFAD1024BD3F841
:104590008C00FFF707FD10BD1C20002000B585B082
:1045A000054A01AB07CA83E807001846FFF7E4FF96
:1045B00005B05DF804FB00BFC44C080010B58AB01C
:1045C0000DF1040C144C0FCCACE80F000FCCACE890
:1045D0000F0023682CF8023B1B0C8CF8003001A85C
:1045E000FFF7CAFF0D4BD3F8903013F0020F09D03C
:1045F00023F00203094AC2F890300948FFF7BCFFD4
:104600000AB010BD43F00203044AC2F890300548D6
:10461000FFF7B2FFF4E700BFD04C08001C200020D9
:10462000140200201C02002000B585B01C4A01AB1A
:1046300007CA83E807001846FFF79EFF194BD3F817
:10464000903013F0010F0AD023F00103154AC2F88D
:1046500090301548FFF790FF05B05DF804FB43F07C
:104660000103104AC2F890301048FFF785FF002080
:10467000FDF718FE0120FDF715FE0220FDF712FEE2
:104680000320FDF70FFE0420FDF70CFE0520FDF7CB
:1046900009FE0620FDF706FE0720FDF703FEDBE717
:1046A000F44C08001C200020140200201C020020F2
:1046B000F8B5002558E0734BD3F8903013F0040F91
:1046C0000ED0704A92F8943092F99420002A25DB9B
:1046D0006C4AD11881F89840013382F894301DE07B
:1046E000684B93F8943043B1013BDBB2654A82F8E2
:1046F00094301A44002382F89830624BD3F8182182
:1047000003F58E739A4209D0A3F58E73013AC3F86C
:104710001821B3F85C21013AA3F85C21594E96F8B0
:104720005E715948FFF728FF06EB8707C7F860015D
:1047300096F85E310133DBB286F85E31102B78D00B
:10474000504BD3F8903013F0010F40F086804D4B62
:10475000D3F8A0210132C3F8A02184339A4203D3B5
:10476000843B1A1DC3F8A021464BD3F8A0211B6837
:104770009A4278D0002D74D11478082C9BD00D2C3F
:104780005BD0404A92F8943092F99420002A06DBDC
:104790003C4AD11881F89840013382F89430394E60
:1047A00096F85E712146D6F88C00FFF7E3FB06EB26
:1047B0008707C7F8600196F85E310133DBB286F8EF
:1047C0005E31102B45D02F4BD3F8903013F0040FEF
:1047D000B6D12C4BD3F8182102F8014BC3F818219D
:1047E000B3F85C110131A3F85C1103F5AE739A4282
:1047F000A6D30D2CA4D0A3F5AE7606F58E73C6F81D
:1048000018310023A6F85C3196F85E711F48FFF757
:10481000B3FE06EB8707C7F8600196F85E310133F7
:10482000DBB286F85E31102B8AD1002286F85E2139
:1048300086E7002286F85E2182E7124BD3F890309B
:1048400013F0040F9DD10F4B114AC3F884200125AA
:1048500097E7002286F85E21B5E72046FFF768FE5D
:1048600075E7002400E000240F2C0AD8054B03EB69
:104870008403D3F8600120B1FDF7A4FE0134E4B253
:10488000F2E7F8BD1C200020CC020020D00200205E
:104890009548080008B5002200E01A46264B13444C
:1048A00093F81C11254B9B5C99423DD1531CDBB204
:1048B000032BF2D9012151B3911CC8B21E490B44FC
:1048C00093F91C31303B59B2DBB2092B1FD801EBF5
:1048D00081014FEA410C4FFA8CF1174B83F888C0E5
:1048E0000332D2B2034493F91C31303B58B2DBB2ED
:1048F000092B0CD80B18DBB20F4981F88830072B35
:1049000005D80B46134493F81C310D2B10D00C48DE
:10491000FFF732FE084B0B4AC3F88420064B03F521
:104920008E72C3F8182108BD531CDBB20021C2E708
:10493000054AC1F88420F1E71C200020044F08003C
:10494000F0020020B14608000945080000B583B018
:1049500040F60A53ADF8043001AA0221034BD3F804
:104960008C00FFF71FFB03B05DF804FB1C20002048
:1049700030B593B00BAC214D0FCD0FC495E80700B7
:1049800003C422703A238DF8063020238DF80730B7
:104990000A238DF828300D238DF8293000248DF856
:1049A0002A400BA8FFF7E8FD11E0154A52F8341031
:1049B000C95C03F14C026A4402F8441C0133DBB2C7
:1049C0001F2BF2D901A8FFF7D7FD0134E4B2072C61
:1049D0000FD830238DF804300A4BA3FB0423DB08E7
:1049E00003EB83035A00A21A30328DF8052000230E
:1049F000E6E7FFF7ABFF13B030BD00BF004D080086
:104A00008C020020CDCCCCCC70B584B00021254BDD
:104A10000C460D460CE00DB10134E4B2B0FBF3F2EC
:104A200003FB1200204AA2FB0323DB080131C9B2B9
:104A300009290DD8B0FBF3F23032D2B201F11006E1
:104A40000DEB060C0CF80C2C302AE4D00125E3E722
:104A500005B901242646204600F0B4FB054608B1FE
:104A6000092310E0114B022283F8A421104AC3F855
:104A70008420F5E7013C03F110026A4412F80C2C83
:104A80002A55E4B2013B002CF4D12A463146074BAB
:104A9000D3F88C00FFF786FA284600F09BFB04B0A1
:104AA00070BD00BF00CA9A3BCDCCCCCC1C200020EE
:104AB000B54A080010B50D4CD4F8903043F00043CF
:104AC000C4F890300A48FFF757FD94F8A401FFF7A7
:104AD0009BFFFFF73BFF0023A4F85C3104F58E73C6
:104AE000C4F81831034BC4F8843010BD1C200020DA
:104AF00014030020B146080084460D4B93F894003F
:104B000000230AE00A4A1A4492F898100CF803109D
:104B1000002182F898100133DBB2054A92F8942004
:104B20009A42EFD8024B002283F89420704700BFCE
:104B30001C20002008B5054AD2F8903043F0040349
:104B4000C2F890300248FFF717FD08BD1C20002076
:104B50001C4D080008B5054AD2F8903023F0040334
:104B6000C2F890300248FFF707FD08BD1C20002066
:104B7000444D080030B599B013AC184D0FCD0FC49B
:104B80002B6824F8023B1B0C23704822144901A80F
:104B900000F050FC01A8FFF7EFFC002401221546AD
:104BA00002E06D000134E4B2062C0ED80D4B1B68F8
:104BB0002B42F6D104EB840253000B481844FFF754
:104BC000DBFCFFF7C3FE0022EBE71AB9FFF7BEFEDE
:104BD00019B030BD13A8FFF7CFFCF7E76C4D080004
:104BE000804D0800C8210020E84F080010B58CB0A7
:104BF0000DF1140C284C0FCCACE80F0094E8070022
:104C0000ACE80300ACF80020002305E0234A1A4476
:104C10000021117101339BB27F2BF7D91F4A131D5D
:104C2000C2F8A0311360002382F8943006E01B4ADA
:104C30001A44002182F898100133DBB213F0800F80
:104C4000F5D0164C04F58E73C4F8183102238DF894
:104C50000430231D029303948023ADF80630104BDB
:104C6000049301A8FFF760F8C4F88C0080B10D48E8
:104C7000FFF782FC05A8FFF77FFC0B4A136843F09F
:104C800004031360054B094AC3F884200CB010BD1F
:104C9000074AC4F88420F9E7C84D08001C2000200A
:104CA000ED4408002C030020C8210020B146080074
:104CB000B54A080008B5024BD3F88430984708BDC0
:104CC0001C2000200A0D44756D6D79210A0A0D0023
:104CD0000A0D53797374656D2074696D652076696A
:104CE0006F6C6174696F6E207265706F7274696E3B
:104CF000672000000A0D4C65642054657374200021
:104D00000A0A0D417661696C61626C6520636F6DA2
:104D10006D616E64733A0A0D000000000A0A0D2AE4
:104D20002A2A446562756720506173737468726FD4
:104D300075676820656E61626C65642A2A2A0A0AB2
:104D40000D0000000A0A0D2A2A2A446562756720B0
:104D5000506173737468726F7567682064697361FA
:104D6000626C65642A2A2A0A0A0D00004E6F2066CA
:104D700061696C6564207461736B732E0A0D0000A9
:104D80000A0D496E697469616C697A6174696F6E44
:104D900020636F6D706C6574652E2054797065208A
:104DA000656E2B63303020666F72206465627567B4
:104DB000206D656E752E20204661696C65642074D7
:104DC00061736B733A0A0D004669726D77617265A3
:104DD0002076657273696F6E3A20312E30300A0A80
:104DE0000D00000053686F7720646562756720636B
:104DF0006F6D6D616E64206C6973742020202020BB
:104E00002020202000000000546F67676C65204C54
:104E10004544207465737420202020202020202009
:104E2000202020202020202000000000546F6767F1
:104E30006C652073797374656D2074696D696E6734
:104E4000207761726E696E672020202000000000CC
:104E500044756D6D793320202020202020202020D3
:104E60002020202020202020202020202020202042
:104E70000000000044756D6D793420202020202032
:104E80002020202020202020202020202020202022
:104E9000202020200000000044756D6D7935202011
:104EA0002020202020202020202020202020202002
:104EB00020202020202020200000000044756D6D5F
:104EC0007936202020202020202020202020202073
:104ED0002020202020202020202020200000000052
:104EE00044756D6D7937202020202020202020203F
:104EF00020202020202020202020202020202020B2
:104F000000000000656E2B630000000008B5324C05
:104F1000236843F000432360FBF752F9FBF758F98D
:104F2000FBF7ACF9FBF77AFAFDF70AF9FBF716FA8B
:104F3000FDF768FBFEF7A0FFFFF758FEFDF74CF802
:104F4000FFF7BEF8FEF7ACF8FEF712FDFDF7D4FD53
:104F5000FBF730FBFFF736FAFDF790FAFCF7A0FA03
:104F6000FCF7ACFE00F0DCF800F009F900F019F9EC
:104F7000FFF700FE236823F000432360174B184A15
:104F80001A65FBF7FDF9FDF791FBFEF7BBFFFFF795
:104F900091FEFDF76BF8FFF7C9F8FEF79FF8FEF7F3
:104FA00031FDFDF70BFEFBF753FBFFF787FAFDF72B
:104FB000D1FAFCF747FBFCF79DFE00F0C7F800F0C4
:104FC000E7F800F0F7F8074C4FF000452563FBF7D2
:104FD00007FA6563D2E700BFC421002000120E402B
:104FE000010000A5000C0E404C45440000000000EC
:104FF0000000425554544F4E0000000044454255B5
:1050000047000000000054494D45520000000000D8
:105010004C434400000000000000414443000000F5
:1050200000000000414E540000000000000000009D
:10503000054A13780133DBB21370FA2B02D91346F9
:10504000024A5A60704700BFD4210020A1500800D6
:1050500008B50E4A138901339BB21381B3F57A7FE9
:1050600000D808BD0120FFF75EF909490020FFF7CD
:1050700075F908494520FFF771F907494D20FFF7F9
:105080006DF9024B054A5A60EBE700BFD4210020BE
:10509000640300205C510800605108003150080092
:1050A00010B50120FCF76AFF04460020FCF766FFFC
:1050B000044314F0FF0F0CD00020FCF76BFF01201D
:1050C000FCF768FF0120FDF7EDF80120FFF72BF951
:1050D00010BD0220FCF752FF04460320FCF74EFFF0
:1050E000044314F0FF0FF3D00320FCF753FF02201A
:1050F000FCF750FF0020FDF7D5F80720FDF7D2F8A8
:105100000120FFF710F904490020FFF727F90349B0
:105110004920FFF723F9DBE76451080078510800C4
:1051200038B5074C0025258125700120FFF7FBF8D5
:1051300004492846FFF712F9034B636038BD00BFEE
:10514000D42100207C0300205150080008B5024BF8
:105150005B68984708BD00BFD421002059657300E3
:105160004E6F00002020202041777720746F6F2041
:105170006261642E2E2E00003A2800007047024B18
:10518000024A1A60704700BFE42100207D510800E8
:1051900008B5024B1B68984708BD00BFE4210020FA
:1051A0007047024B024A1A60704700BFEC21002092
:1051B000A151080008B5024B1B68984708BD00BF05
:1051C000EC210020024B0146186800F02DB800BF0A
:1051D00090030020024B0146186800F041B900BF5F
:1051E0009003002070B50F4E0C463168054611B98A
:1051F00000F004F930602146284600F0FFF8431C17
:1052000003D14FF0FF34204670BDC41C24F00304CA
:10521000A042F8D0211A284600F0F0F80130F2D16F
:10522000EFE700BFF42100202DE9F843CD1C25F065
:10523000030508350C2D38BF0C25002D064601DB73
:10524000A94204D90C2333600020BDE8F883DFF8BD
:10525000D48000F069F8D8F800301C4644BB2946D9
:105260003046FFF7BFFF431C044658D1D8F8004032
:105270002746002F43D1002C4BD0236839463046B7
:1052800004EB030900F0BAF8814542D121683046A9
:105290006D1A2946FFF7A6FF01303AD023682B4448
:1052A0002360D8F800305A6862BBC8F800700FE07D
:1052B0002268521B20D40B2A17D96119A3422560FA
:1052C00018BF5960636808BFC8F8001062514B608E
:1052D000304600F02FF804F10B00231D20F00700EA
:1052E000C21A1CBF1B1AA350AFE76268A3420CBFCF
:1052F000C8F800205A60EBE723466468AEE73C46F6
:105300007F68B6E71A465B68A342FBD1002353606F
:10531000DEE70C233046336000F00CF894E70560BC
:10532000D6E700BFF8210020014800F07CB800BF9C
:1053300004220020014800F07CB800BF04220020B5
:1053400003460244934200D1704703F8011BF9E77A
:10535000294B70B51B68044683424BD0C369ABB17F
:10536000DB686BB10025E369DB68595900293BD143
:105370000435802DF7D1E3692046D96800F070F834
:10538000E369196811B1204600F06AF8616911B14A
:10539000204600F065F8E16911B1204600F060F8A0
:1053A000216B11B1204600F05BF8616B11B1204612
:1053B00000F056F8A16B11B1204600F051F8A16C35
:1053C00011B1204600F04CF8616C11B1204600F09C
:1053D00047F8E16A11B1204600F042F8236A4BB168
:1053E0002046BDE8704018470E68204600F038F8A7
:1053F0003146BBE770BD00BF9003002038B50023E5
:10540000054D044608462B60FAF7BCFE431C02D14A
:105410002B6803B1236038BDFC2100207047704722
:1054200070477047704770470120704701207047F0
:10543000704770470A44914200F1FF3300D1704732
:1054400010B511F8014B914203F8014FF9D110BD8D
:10545000034611F8012B03F8012B002AF9D17047FC
:1054600038B50546002940D051F8043C0C1F002BEC
:10547000B8BFE418FFF758FF1C4A136833B96360DC
:1054800014602846BDE83840FFF754BFA34208D94E
:10549000206821188B4201BF19685B6809182160D8
:1054A000EDE71A465B680BB1A342FAD911685018B0
:1054B000A0420BD120680144501883421160E0D112
:1054C00018685B68084410605360DAE702D90C235F
:1054D0002B60D6E7206821188B4201BF19685B68F2
:1054E0000918216063605460CBE738BDF8210020C3
:1054F00000000820414E54206368616E6E656C2088
:1055000064206F70656E2000414E54206368616EA8
:105510006E656C206420636C6F7365200000000072
:10552000414E54206368616E6E656C206420756E18
:1055300061737369676E2000414E54206368616E29
:105540006E656C2064206D657373616765203078CB
:10555000787820726573706F6E73652064642000C4
:105560004F4B0A0D000000004641494C0A0D000057
:10557000414E5420666C6167733A0A0D00000000CA
:105580004C656E677468206D69736D617463680A39
:105590000D000000436F6D6D616E64206572726F67
:1055A000720A0D0000000000556E65787065637426
:1055B0006564206576656E740A0D0000556E657829
:1055C000706563746564206D6573736167650A0D4A
:1055D000024D003E000000000A0D4E6F2073706106
:1055E000636520696E20416E7451756575654F75F0
:1055F00074676F696E674D6573736167650A0D0047
:105600000A0D2323206E5246353134323220507237
:105610006F6772616D6D696E67204D6F64653A20CA
:105620006E6F20414E542066756E6374696F6E61B3
:105630006C6974792023230A0A0D0000496E69748D
:1056400069616C697A696E6720414E542E2E2E2056
:10565000000000006661696C65642E20486F7374F9
:1056600020494F732073657420746F2048695A2E47
:105670000D0A0000094F00000000000000000000BB
:10568000094E00000000000000000000026E00C093
:1056900000000000024400FF00000000024700007C
:1056A000000000000245000000000000034300006D
:1056B000000000000551000000000000034200004F
:1056C000000000000946000000000000000000008B
:1056D000414E54206368616E6E656C206420736572
:1056E0007475702000000000414E54206368616EA4
:1056F0006E656C20642061737369676E2000000022
:10570000102700004F46460D0A0000004F4E0D0ABC
:10571000000000004641494C0D0A00004F4B0D0AA5
:105720000000000040000000000000000000000039
:105730000000000000000000000000000000000069
:105740000000000000000000000000000000000059
:105750004000000000000000000000000000000009
:105760000000000000000000000000000000000039
:10577000000000000000000000000000E44D0800F0
:1057800071490800084E0800294608002C4E080000
:10579000BD450800504E08009D450800744E0800A5
:1057A0009D450800984E08009D450800BC4E080025
:1057B0009D450800E04E08009D45080008200800AF
:1057C0000D0A2A2A2A20436F6D6D616E6420746F62
:1057D0006F206C6F6E67202A2A2A0D0A0A000000CB
:1057E0000A496E76616C696420636F6D6D616E64E9
:1057F0002E202055736520656E2B6323230A0A0D26
:10580000000000000A0A4465627567207461736BCA
:10581000206572726F723A20000000000A0A0D2A99
:105820002A2A2052415A4F522053414D335532209B
:105830004153434949204C434420444556454C4F2D
:10584000504D454E5420424F415244202A2A2A0AA4
:105850000A0D000043616E20796F752068616E64E7
:105860006C65204D696C6F3F0000000020204D6981
:105870006C6F20746865206D6F6E6B657921000018
:1058800094030020000000000000000068000000F9
:10589000D000000000000000000000000000000038
:1058A00000000000000000000000000000000000F8
:1058B00000000000000000000000000000000000E8
:1058C00000000000000000000000000000000000D8
:04000003800001096F
:00000001FF
